{
  "_format": "hh-sol-artifact-1",
  "contractName": "HollyFund",
  "sourceName": "contracts/HollyFund.sol",
  "abi": [
    {
      "inputs": [
        {
          "internalType": "uint256",
          "name": "initialSupply",
          "type": "uint256"
        }
      ],
      "stateMutability": "nonpayable",
      "type": "constructor"
    },
    {
      "inputs": [
        {
          "internalType": "address",
          "name": "spender",
          "type": "address"
        },
        {
          "internalType": "uint256",
          "name": "allowance",
          "type": "uint256"
        },
        {
          "internalType": "uint256",
          "name": "needed",
          "type": "uint256"
        }
      ],
      "name": "ERC20InsufficientAllowance",
      "type": "error"
    },
    {
      "inputs": [
        {
          "internalType": "address",
          "name": "sender",
          "type": "address"
        },
        {
          "internalType": "uint256",
          "name": "balance",
          "type": "uint256"
        },
        {
          "internalType": "uint256",
          "name": "needed",
          "type": "uint256"
        }
      ],
      "name": "ERC20InsufficientBalance",
      "type": "error"
    },
    {
      "inputs": [
        {
          "internalType": "address",
          "name": "approver",
          "type": "address"
        }
      ],
      "name": "ERC20InvalidApprover",
      "type": "error"
    },
    {
      "inputs": [
        {
          "internalType": "address",
          "name": "receiver",
          "type": "address"
        }
      ],
      "name": "ERC20InvalidReceiver",
      "type": "error"
    },
    {
      "inputs": [
        {
          "internalType": "address",
          "name": "sender",
          "type": "address"
        }
      ],
      "name": "ERC20InvalidSender",
      "type": "error"
    },
    {
      "inputs": [
        {
          "internalType": "address",
          "name": "spender",
          "type": "address"
        }
      ],
      "name": "ERC20InvalidSpender",
      "type": "error"
    },
    {
      "anonymous": false,
      "inputs": [
        {
          "indexed": true,
          "internalType": "address",
          "name": "owner",
          "type": "address"
        },
        {
          "indexed": true,
          "internalType": "address",
          "name": "spender",
          "type": "address"
        },
        {
          "indexed": false,
          "internalType": "uint256",
          "name": "value",
          "type": "uint256"
        }
      ],
      "name": "Approval",
      "type": "event"
    },
    {
      "anonymous": false,
      "inputs": [
        {
          "indexed": false,
          "internalType": "string",
          "name": "name",
          "type": "string"
        },
        {
          "indexed": false,
          "internalType": "uint256",
          "name": "targetAmount",
          "type": "uint256"
        }
      ],
      "name": "NewCampaign",
      "type": "event"
    },
    {
      "anonymous": false,
      "inputs": [
        {
          "indexed": false,
          "internalType": "string",
          "name": "name",
          "type": "string"
        },
        {
          "indexed": false,
          "internalType": "uint256",
          "name": "investAmount",
          "type": "uint256"
        }
      ],
      "name": "NewInvestment",
      "type": "event"
    },
    {
      "anonymous": false,
      "inputs": [
        {
          "indexed": true,
          "internalType": "address",
          "name": "from",
          "type": "address"
        },
        {
          "indexed": true,
          "internalType": "address",
          "name": "to",
          "type": "address"
        },
        {
          "indexed": false,
          "internalType": "uint256",
          "name": "value",
          "type": "uint256"
        }
      ],
      "name": "Transfer",
      "type": "event"
    },
    {
      "inputs": [
        {
          "internalType": "address",
          "name": "owner",
          "type": "address"
        },
        {
          "internalType": "address",
          "name": "spender",
          "type": "address"
        }
      ],
      "name": "allowance",
      "outputs": [
        {
          "internalType": "uint256",
          "name": "",
          "type": "uint256"
        }
      ],
      "stateMutability": "view",
      "type": "function"
    },
    {
      "inputs": [
        {
          "internalType": "address",
          "name": "spender",
          "type": "address"
        },
        {
          "internalType": "uint256",
          "name": "value",
          "type": "uint256"
        }
      ],
      "name": "approve",
      "outputs": [
        {
          "internalType": "bool",
          "name": "",
          "type": "bool"
        }
      ],
      "stateMutability": "nonpayable",
      "type": "function"
    },
    {
      "inputs": [
        {
          "internalType": "address",
          "name": "account",
          "type": "address"
        }
      ],
      "name": "balanceOf",
      "outputs": [
        {
          "internalType": "uint256",
          "name": "",
          "type": "uint256"
        }
      ],
      "stateMutability": "view",
      "type": "function"
    },
    {
      "inputs": [
        {
          "internalType": "string",
          "name": "",
          "type": "string"
        },
        {
          "internalType": "address",
          "name": "",
          "type": "address"
        }
      ],
      "name": "campaignToInvestments",
      "outputs": [
        {
          "internalType": "uint256",
          "name": "",
          "type": "uint256"
        }
      ],
      "stateMutability": "view",
      "type": "function"
    },
    {
      "inputs": [
        {
          "internalType": "string",
          "name": "",
          "type": "string"
        }
      ],
      "name": "campaigns",
      "outputs": [
        {
          "internalType": "string",
          "name": "title",
          "type": "string"
        },
        {
          "internalType": "uint256",
          "name": "totalAmount",
          "type": "uint256"
        },
        {
          "internalType": "uint256",
          "name": "targetAmount",
          "type": "uint256"
        },
        {
          "internalType": "address",
          "name": "producer",
          "type": "address"
        },
        {
          "internalType": "bool",
          "name": "exists",
          "type": "bool"
        }
      ],
      "stateMutability": "view",
      "type": "function"
    },
    {
      "inputs": [
        {
          "internalType": "string",
          "name": "_name",
          "type": "string"
        }
      ],
      "name": "claim",
      "outputs": [],
      "stateMutability": "nonpayable",
      "type": "function"
    },
    {
      "inputs": [
        {
          "internalType": "string",
          "name": "_name",
          "type": "string"
        },
        {
          "internalType": "uint256",
          "name": "_targetAmount",
          "type": "uint256"
        }
      ],
      "name": "createCampaign",
      "outputs": [],
      "stateMutability": "nonpayable",
      "type": "function"
    },
    {
      "inputs": [],
      "name": "decimals",
      "outputs": [
        {
          "internalType": "uint8",
          "name": "",
          "type": "uint8"
        }
      ],
      "stateMutability": "view",
      "type": "function"
    },
    {
      "inputs": [],
      "name": "getAllCampaigns",
      "outputs": [
        {
          "components": [
            {
              "internalType": "string",
              "name": "title",
              "type": "string"
            },
            {
              "internalType": "uint256",
              "name": "totalAmount",
              "type": "uint256"
            },
            {
              "internalType": "uint256",
              "name": "targetAmount",
              "type": "uint256"
            },
            {
              "internalType": "address",
              "name": "producer",
              "type": "address"
            }
          ],
          "internalType": "struct HollyFund.CampaignDto[]",
          "name": "",
          "type": "tuple[]"
        }
      ],
      "stateMutability": "view",
      "type": "function"
    },
    {
      "inputs": [
        {
          "internalType": "string",
          "name": "_name",
          "type": "string"
        }
      ],
      "name": "getCampaign",
      "outputs": [
        {
          "components": [
            {
              "internalType": "string",
              "name": "title",
              "type": "string"
            },
            {
              "internalType": "uint256",
              "name": "totalAmount",
              "type": "uint256"
            },
            {
              "internalType": "uint256",
              "name": "targetAmount",
              "type": "uint256"
            },
            {
              "internalType": "address",
              "name": "producer",
              "type": "address"
            }
          ],
          "internalType": "struct HollyFund.CampaignDto",
          "name": "",
          "type": "tuple"
        }
      ],
      "stateMutability": "view",
      "type": "function"
    },
    {
      "inputs": [
        {
          "internalType": "string",
          "name": "_name",
          "type": "string"
        }
      ],
      "name": "getCompletion",
      "outputs": [
        {
          "internalType": "uint256",
          "name": "",
          "type": "uint256"
        }
      ],
      "stateMutability": "view",
      "type": "function"
    },
    {
      "inputs": [
        {
          "internalType": "string",
          "name": "_name",
          "type": "string"
        }
      ],
      "name": "getInvestment",
      "outputs": [
        {
          "internalType": "uint256",
          "name": "",
          "type": "uint256"
        }
      ],
      "stateMutability": "view",
      "type": "function"
    },
    {
      "inputs": [
        {
          "internalType": "string",
          "name": "_name",
          "type": "string"
        }
      ],
      "name": "invest",
      "outputs": [],
      "stateMutability": "payable",
      "type": "function"
    },
    {
      "inputs": [],
      "name": "name",
      "outputs": [
        {
          "internalType": "string",
          "name": "",
          "type": "string"
        }
      ],
      "stateMutability": "view",
      "type": "function"
    },
    {
      "inputs": [],
      "name": "symbol",
      "outputs": [
        {
          "internalType": "string",
          "name": "",
          "type": "string"
        }
      ],
      "stateMutability": "view",
      "type": "function"
    },
    {
      "inputs": [],
      "name": "totalSupply",
      "outputs": [
        {
          "internalType": "uint256",
          "name": "",
          "type": "uint256"
        }
      ],
      "stateMutability": "view",
      "type": "function"
    },
    {
      "inputs": [
        {
          "internalType": "address",
          "name": "to",
          "type": "address"
        },
        {
          "internalType": "uint256",
          "name": "value",
          "type": "uint256"
        }
      ],
      "name": "transfer",
      "outputs": [
        {
          "internalType": "bool",
          "name": "",
          "type": "bool"
        }
      ],
      "stateMutability": "nonpayable",
      "type": "function"
    },
    {
      "inputs": [
        {
          "internalType": "address",
          "name": "from",
          "type": "address"
        },
        {
          "internalType": "address",
          "name": "to",
          "type": "address"
        },
        {
          "internalType": "uint256",
          "name": "value",
          "type": "uint256"
        }
      ],
      "name": "transferFrom",
      "outputs": [
        {
          "internalType": "bool",
          "name": "",
          "type": "bool"
        }
      ],
      "stateMutability": "nonpayable",
      "type": "function"
    }
  ],
  "bytecode": "0x60806040523480156200001157600080fd5b5060405162003781380380620037818339818101604052810190620000379190620003df565b6040518060400160405280600681526020017f446f6c6c617200000000000000000000000000000000000000000000000000008152506040518060400160405280600381526020017f55534400000000000000000000000000000000000000000000000000000000008152508160039081620000b4919062000681565b508060049081620000c6919062000681565b505050620000db3382620000e260201b60201c565b506200089f565b600073ffffffffffffffffffffffffffffffffffffffff168273ffffffffffffffffffffffffffffffffffffffff1603620001575760006040517fec442f050000000000000000000000000000000000000000000000000000000081526004016200014e9190620007ad565b60405180910390fd5b6200016b600083836200016f60201b60201c565b5050565b600073ffffffffffffffffffffffffffffffffffffffff168373ffffffffffffffffffffffffffffffffffffffff1603620001c5578060026000828254620001b89190620007f9565b925050819055506200029b565b60008060008573ffffffffffffffffffffffffffffffffffffffff1673ffffffffffffffffffffffffffffffffffffffff1681526020019081526020016000205490508181101562000254578381836040517fe450d38c0000000000000000000000000000000000000000000000000000000081526004016200024b9392919062000845565b60405180910390fd5b8181036000808673ffffffffffffffffffffffffffffffffffffffff1673ffffffffffffffffffffffffffffffffffffffff16815260200190815260200160002081905550505b600073ffffffffffffffffffffffffffffffffffffffff168273ffffffffffffffffffffffffffffffffffffffff1603620002e6578060026000828254039250508190555062000333565b806000808473ffffffffffffffffffffffffffffffffffffffff1673ffffffffffffffffffffffffffffffffffffffff168152602001908152602001600020600082825401925050819055505b8173ffffffffffffffffffffffffffffffffffffffff168373ffffffffffffffffffffffffffffffffffffffff167fddf252ad1be2c89b69c2b068fc378daa952ba7f163c4a11628f55a4df523b3ef8360405162000392919062000882565b60405180910390a3505050565b600080fd5b6000819050919050565b620003b981620003a4565b8114620003c557600080fd5b50565b600081519050620003d981620003ae565b92915050565b600060208284031215620003f857620003f76200039f565b5b60006200040884828501620003c8565b91505092915050565b600081519050919050565b7f4e487b7100000000000000000000000000000000000000000000000000000000600052604160045260246000fd5b7f4e487b7100000000000000000000000000000000000000000000000000000000600052602260045260246000fd5b600060028204905060018216806200049357607f821691505b602082108103620004a957620004a86200044b565b5b50919050565b60008190508160005260206000209050919050565b60006020601f8301049050919050565b600082821b905092915050565b600060088302620005137fffffffffffffffffffffffffffffffffffffffffffffffffffffffffffffffff82620004d4565b6200051f8683620004d4565b95508019841693508086168417925050509392505050565b6000819050919050565b6000620005626200055c6200055684620003a4565b62000537565b620003a4565b9050919050565b6000819050919050565b6200057e8362000541565b620005966200058d8262000569565b848454620004e1565b825550505050565b600090565b620005ad6200059e565b620005ba81848462000573565b505050565b5b81811015620005e257620005d6600082620005a3565b600181019050620005c0565b5050565b601f8211156200063157620005fb81620004af565b6200060684620004c4565b8101602085101562000616578190505b6200062e6200062585620004c4565b830182620005bf565b50505b505050565b600082821c905092915050565b6000620006566000198460080262000636565b1980831691505092915050565b600062000671838362000643565b9150826002028217905092915050565b6200068c8262000411565b67ffffffffffffffff811115620006a857620006a76200041c565b5b620006b482546200047a565b620006c1828285620005e6565b600060209050601f831160018114620006f95760008415620006e4578287015190505b620006f0858262000663565b86555062000760565b601f1984166200070986620004af565b60005b8281101562000733578489015182556001820191506020850194506020810190506200070c565b868310156200075357848901516200074f601f89168262000643565b8355505b6001600288020188555050505b505050505050565b600073ffffffffffffffffffffffffffffffffffffffff82169050919050565b6000620007958262000768565b9050919050565b620007a78162000788565b82525050565b6000602082019050620007c460008301846200079c565b92915050565b7f4e487b7100000000000000000000000000000000000000000000000000000000600052601160045260246000fd5b60006200080682620003a4565b91506200081383620003a4565b92508282019050808211156200082e576200082d620007ca565b5b92915050565b6200083f81620003a4565b82525050565b60006060820190506200085c60008301866200079c565b6200086b602083018562000834565b6200087a604083018462000834565b949350505050565b600060208201905062000899600083018462000834565b92915050565b612ed280620008af6000396000f3fe6080604052600436106101095760003560e01c806352bf36ec1161009557806395d89b411161006457806395d89b41146103c2578063a9059cbb146103ed578063dd62ed3e1461042a578063f102a67c14610467578063f3fe12c91461049057610109565b806352bf36ec146102e057806370a082311461031d57806386cdf6041461035a57806391e52ccb1461038557610109565b80631d39e509116100dc5780631d39e509146101bd5780631e6a3305146101fe57806323b872dd1461023b578063313ce567146102785780633f694c12146102a357610109565b806306fdde031461010e578063095ea7b3146101395780630a8b78261461017657806318160ddd14610192575b600080fd5b34801561011a57600080fd5b506101236104b9565b6040516101309190611c87565b60405180910390f35b34801561014557600080fd5b50610160600480360381019061015b9190611d51565b61054b565b60405161016d9190611dac565b60405180910390f35b610190600480360381019061018b9190611e2c565b61056e565b005b34801561019e57600080fd5b506101a76107b7565b6040516101b49190611e88565b60405180910390f35b3480156101c957600080fd5b506101e460048036038101906101df9190611fd3565b6107c1565b6040516101f595949392919061202b565b60405180910390f35b34801561020a57600080fd5b5061022560048036038101906102209190612085565b6108c2565b6040516102329190611e88565b60405180910390f35b34801561024757600080fd5b50610262600480360381019061025d91906120e1565b6108fd565b60405161026f9190611dac565b60405180910390f35b34801561028457600080fd5b5061028d61092c565b60405161029a9190612150565b60405180910390f35b3480156102af57600080fd5b506102ca60048036038101906102c59190611e2c565b610935565b6040516102d79190611e88565b60405180910390f35b3480156102ec57600080fd5b5061030760048036038101906103029190611e2c565b610a18565b6040516103149190612236565b60405180910390f35b34801561032957600080fd5b50610344600480360381019061033f9190612258565b610bb7565b6040516103519190611e88565b60405180910390f35b34801561036657600080fd5b5061036f610bff565b60405161037c91906123aa565b60405180910390f35b34801561039157600080fd5b506103ac60048036038101906103a79190611e2c565b610dd6565b6040516103b99190611e88565b60405180910390f35b3480156103ce57600080fd5b506103d7610ea0565b6040516103e49190611c87565b60405180910390f35b3480156103f957600080fd5b50610414600480360381019061040f9190611d51565b610f32565b6040516104219190611dac565b60405180910390f35b34801561043657600080fd5b50610451600480360381019061044c91906123cc565b610f55565b60405161045e9190611e88565b60405180910390f35b34801561047357600080fd5b5061048e6004803603810190610489919061240c565b610fdc565b005b34801561049c57600080fd5b506104b760048036038101906104b29190611e2c565b611257565b005b6060600380546104c89061249b565b80601f01602080910402602001604051908101604052809291908181526020018280546104f49061249b565b80156105415780601f1061051657610100808354040283529160200191610541565b820191906000526020600020905b81548152906001019060200180831161052457829003601f168201915b5050505050905090565b60008061055661149b565b90506105638185856114a3565b600191505092915050565b818160011515600583836040516105869291906124fc565b908152602001604051809103902060030160149054906101000a900460ff161515146105e7576040517f08c379a00000000000000000000000000000000000000000000000000000000081526004016105de90612561565b60405180910390fd5b600015156105f585856114b5565b151514610637576040517f08c379a000000000000000000000000000000000000000000000000000000000815260040161062e906125cd565b60405180910390fd5b60006005858560405161064b9291906124fc565b908152602001604051809103902090503481600101600082825461066f919061261c565b9250508190555034600686866040516106899291906124fc565b908152602001604051809103902060003373ffffffffffffffffffffffffffffffffffffffff1673ffffffffffffffffffffffffffffffffffffffff16815260200190815260200160002060008282546106e3919061261c565b925050819055506106f43334611531565b3073ffffffffffffffffffffffffffffffffffffffff166323b872dd3330346040518463ffffffff1660e01b815260040161073193929190612650565b6020604051808303816000875af1158015610750573d6000803e3d6000fd5b505050506040513d601f19601f8201168201806040525081019061077491906126b3565b507f468f5e7720cdcb8ac34ba0dd6210636c9986e10da09c42ee87bac90d14a261268585346040516107a89392919061270d565b60405180910390a15050505050565b6000600254905090565b6005818051602081018201805184825260208301602085012081835280955050505050506000915090508060000180546107fa9061249b565b80601f01602080910402602001604051908101604052809291908181526020018280546108269061249b565b80156108735780601f1061084857610100808354040283529160200191610873565b820191906000526020600020905b81548152906001019060200180831161085657829003601f168201915b5050505050908060010154908060020154908060030160009054906101000a900473ffffffffffffffffffffffffffffffffffffffff16908060030160149054906101000a900460ff16905085565b600682805160208101820180518482526020830160208501208183528095505050505050602052806000526040600020600091509150505481565b60008061090861149b565b90506109158582856115b3565b610920858585611647565b60019150509392505050565b60006012905090565b60008282600115156005838360405161094f9291906124fc565b908152602001604051809103902060030160149054906101000a900460ff161515146109b0576040517f08c379a00000000000000000000000000000000000000000000000000000000081526004016109a790612561565b60405180910390fd5b600685856040516109c29291906124fc565b908152602001604051809103902060003373ffffffffffffffffffffffffffffffffffffffff1673ffffffffffffffffffffffffffffffffffffffff168152602001908152602001600020549250505092915050565b610a20611bb9565b82826001151560058383604051610a389291906124fc565b908152602001604051809103902060030160149054906101000a900460ff16151514610a99576040517f08c379a0000000000000000000000000000000000000000000000000000000008152600401610a9090612561565b60405180910390fd5b600060058686604051610aad9291906124fc565b908152602001604051809103902090506040518060800160405280826000018054610ad79061249b565b80601f0160208091040260200160405190810160405280929190818152602001828054610b039061249b565b8015610b505780601f10610b2557610100808354040283529160200191610b50565b820191906000526020600020905b815481529060010190602001808311610b3357829003601f168201915b5050505050815260200182600101548152602001826002015481526020018260030160009054906101000a900473ffffffffffffffffffffffffffffffffffffffff1673ffffffffffffffffffffffffffffffffffffffff16815250935050505092915050565b60008060008373ffffffffffffffffffffffffffffffffffffffff1673ffffffffffffffffffffffffffffffffffffffff168152602001908152602001600020549050919050565b6060600060078054905067ffffffffffffffff811115610c2257610c21611ea8565b5b604051908082528060200260200182016040528015610c5b57816020015b610c48611bb9565b815260200190600190039081610c405790505b50905060005b600780549050811015610dce576000600560078381548110610c8657610c8561273f565b5b90600052602060002001604051610c9d9190612806565b908152602001604051809103902090506040518060800160405280826000018054610cc79061249b565b80601f0160208091040260200160405190810160405280929190818152602001828054610cf39061249b565b8015610d405780601f10610d1557610100808354040283529160200191610d40565b820191906000526020600020905b815481529060010190602001808311610d2357829003601f168201915b5050505050815260200182600101548152602001826002015481526020018260030160009054906101000a900473ffffffffffffffffffffffffffffffffffffffff1673ffffffffffffffffffffffffffffffffffffffff16815250838381518110610daf57610dae61273f565b5b6020026020010181905250508080610dc69061281d565b915050610c61565b508091505090565b600082826001151560058383604051610df09291906124fc565b908152602001604051809103902060030160149054906101000a900460ff16151514610e51576040517f08c379a0000000000000000000000000000000000000000000000000000000008152600401610e4890612561565b60405180910390fd5b600060058686604051610e659291906124fc565b90815260200160405180910390209050806002015460648260010154610e8b9190612865565b610e9591906128d6565b935050505092915050565b606060048054610eaf9061249b565b80601f0160208091040260200160405190810160405280929190818152602001828054610edb9061249b565b8015610f285780601f10610efd57610100808354040283529160200191610f28565b820191906000526020600020905b815481529060010190602001808311610f0b57829003601f168201915b5050505050905090565b600080610f3d61149b565b9050610f4a818585611647565b600191505092915050565b6000600160008473ffffffffffffffffffffffffffffffffffffffff1673ffffffffffffffffffffffffffffffffffffffff16815260200190815260200160002060008373ffffffffffffffffffffffffffffffffffffffff1673ffffffffffffffffffffffffffffffffffffffff16815260200190815260200160002054905092915050565b82826000151560058383604051610ff49291906124fc565b908152602001604051809103902060030160149054906101000a900460ff16151514611055576040517f08c379a000000000000000000000000000000000000000000000000000000000815260040161104c90612953565b60405180910390fd5b60008303611098576040517f08c379a000000000000000000000000000000000000000000000000000000000815260040161108f906129e5565b60405180910390fd5b60006040518060a0016040528087878080601f016020809104026020016040519081016040528093929190818152602001838380828437600081840152601f19601f820116905080830192505050505050508152602001600081526020018581526020013373ffffffffffffffffffffffffffffffffffffffff16815260200160011515815250905080600587876040516111349291906124fc565b908152602001604051809103902060008201518160000190816111579190612b9c565b50602082015181600101556040820151816002015560608201518160030160006101000a81548173ffffffffffffffffffffffffffffffffffffffff021916908373ffffffffffffffffffffffffffffffffffffffff16021790555060808201518160030160146101000a81548160ff0219169083151502179055509050506007868690918060018154018082558091505060019003906000526020600020016000909192909192909192909192509182611213929190612c79565b507f604b9eb8bc101a6d7cbd7a32ef56634747351735acc484e19c3b4440468cde158686866040516112479392919061270d565b60405180910390a1505050505050565b8181600115156005838360405161126f9291906124fc565b908152602001604051809103902060030160149054906101000a900460ff161515146112d0576040517f08c379a00000000000000000000000000000000000000000000000000000000081526004016112c790612561565b60405180910390fd5b8383600582826040516112e49291906124fc565b908152602001604051809103902060020154600583836040516113089291906124fc565b908152602001604051809103902060010154101561135b576040517f08c379a000000000000000000000000000000000000000000000000000000000815260040161135290612d95565b60405180910390fd5b6001151561136987876114b5565b1515146113ab576040517f08c379a00000000000000000000000000000000000000000000000000000000081526004016113a290612e01565b60405180910390fd5b6000600587876040516113bf9291906124fc565b90815260200160405180910390206001015490503073ffffffffffffffffffffffffffffffffffffffff1663a9059cbb33836040518363ffffffff1660e01b815260040161140e929190612e21565b6020604051808303816000875af115801561142d573d6000803e3d6000fd5b505050506040513d601f19601f8201168201806040525081019061145191906126b3565b503373ffffffffffffffffffffffffffffffffffffffff166108fc829081150290604051600060405180830381858888f1935050505050611492338261173b565b50505050505050565b600033905090565b6114b083838360016117bd565b505050565b60003373ffffffffffffffffffffffffffffffffffffffff16600584846040516114e09291906124fc565b908152602001604051809103902060030160009054906101000a900473ffffffffffffffffffffffffffffffffffffffff1673ffffffffffffffffffffffffffffffffffffffff1614905092915050565b600073ffffffffffffffffffffffffffffffffffffffff168273ffffffffffffffffffffffffffffffffffffffff16036115a35760006040517fec442f0500000000000000000000000000000000000000000000000000000000815260040161159a9190612e4a565b60405180910390fd5b6115af60008383611994565b5050565b60006115bf8484610f55565b90507fffffffffffffffffffffffffffffffffffffffffffffffffffffffffffffffff81146116415781811015611631578281836040517ffb8f41b200000000000000000000000000000000000000000000000000000000815260040161162893929190612e65565b60405180910390fd5b611640848484840360006117bd565b5b50505050565b600073ffffffffffffffffffffffffffffffffffffffff168373ffffffffffffffffffffffffffffffffffffffff16036116b95760006040517f96c6fd1e0000000000000000000000000000000000000000000000000000000081526004016116b09190612e4a565b60405180910390fd5b600073ffffffffffffffffffffffffffffffffffffffff168273ffffffffffffffffffffffffffffffffffffffff160361172b5760006040517fec442f050000000000000000000000000000000000000000000000000000000081526004016117229190612e4a565b60405180910390fd5b611736838383611994565b505050565b600073ffffffffffffffffffffffffffffffffffffffff168273ffffffffffffffffffffffffffffffffffffffff16036117ad5760006040517f96c6fd1e0000000000000000000000000000000000000000000000000000000081526004016117a49190612e4a565b60405180910390fd5b6117b982600083611994565b5050565b600073ffffffffffffffffffffffffffffffffffffffff168473ffffffffffffffffffffffffffffffffffffffff160361182f5760006040517fe602df050000000000000000000000000000000000000000000000000000000081526004016118269190612e4a565b60405180910390fd5b600073ffffffffffffffffffffffffffffffffffffffff168373ffffffffffffffffffffffffffffffffffffffff16036118a15760006040517f94280d620000000000000000000000000000000000000000000000000000000081526004016118989190612e4a565b60405180910390fd5b81600160008673ffffffffffffffffffffffffffffffffffffffff1673ffffffffffffffffffffffffffffffffffffffff16815260200190815260200160002060008573ffffffffffffffffffffffffffffffffffffffff1673ffffffffffffffffffffffffffffffffffffffff16815260200190815260200160002081905550801561198e578273ffffffffffffffffffffffffffffffffffffffff168473ffffffffffffffffffffffffffffffffffffffff167f8c5be1e5ebec7d5bd14f71427d1e84f3dd0314c0f7b2291e5b200ac8c7c3b925846040516119859190611e88565b60405180910390a35b50505050565b600073ffffffffffffffffffffffffffffffffffffffff168373ffffffffffffffffffffffffffffffffffffffff16036119e65780600260008282546119da919061261c565b92505081905550611ab9565b60008060008573ffffffffffffffffffffffffffffffffffffffff1673ffffffffffffffffffffffffffffffffffffffff16815260200190815260200160002054905081811015611a72578381836040517fe450d38c000000000000000000000000000000000000000000000000000000008152600401611a6993929190612e65565b60405180910390fd5b8181036000808673ffffffffffffffffffffffffffffffffffffffff1673ffffffffffffffffffffffffffffffffffffffff16815260200190815260200160002081905550505b600073ffffffffffffffffffffffffffffffffffffffff168273ffffffffffffffffffffffffffffffffffffffff1603611b025780600260008282540392505081905550611b4f565b806000808473ffffffffffffffffffffffffffffffffffffffff1673ffffffffffffffffffffffffffffffffffffffff168152602001908152602001600020600082825401925050819055505b8173ffffffffffffffffffffffffffffffffffffffff168373ffffffffffffffffffffffffffffffffffffffff167fddf252ad1be2c89b69c2b068fc378daa952ba7f163c4a11628f55a4df523b3ef83604051611bac9190611e88565b60405180910390a3505050565b6040518060800160405280606081526020016000815260200160008152602001600073ffffffffffffffffffffffffffffffffffffffff1681525090565b600081519050919050565b600082825260208201905092915050565b60005b83811015611c31578082015181840152602081019050611c16565b60008484015250505050565b6000601f19601f8301169050919050565b6000611c5982611bf7565b611c638185611c02565b9350611c73818560208601611c13565b611c7c81611c3d565b840191505092915050565b60006020820190508181036000830152611ca18184611c4e565b905092915050565b6000604051905090565b600080fd5b600080fd5b600073ffffffffffffffffffffffffffffffffffffffff82169050919050565b6000611ce882611cbd565b9050919050565b611cf881611cdd565b8114611d0357600080fd5b50565b600081359050611d1581611cef565b92915050565b6000819050919050565b611d2e81611d1b565b8114611d3957600080fd5b50565b600081359050611d4b81611d25565b92915050565b60008060408385031215611d6857611d67611cb3565b5b6000611d7685828601611d06565b9250506020611d8785828601611d3c565b9150509250929050565b60008115159050919050565b611da681611d91565b82525050565b6000602082019050611dc16000830184611d9d565b92915050565b600080fd5b600080fd5b600080fd5b60008083601f840112611dec57611deb611dc7565b5b8235905067ffffffffffffffff811115611e0957611e08611dcc565b5b602083019150836001820283011115611e2557611e24611dd1565b5b9250929050565b60008060208385031215611e4357611e42611cb3565b5b600083013567ffffffffffffffff811115611e6157611e60611cb8565b5b611e6d85828601611dd6565b92509250509250929050565b611e8281611d1b565b82525050565b6000602082019050611e9d6000830184611e79565b92915050565b600080fd5b7f4e487b7100000000000000000000000000000000000000000000000000000000600052604160045260246000fd5b611ee082611c3d565b810181811067ffffffffffffffff82111715611eff57611efe611ea8565b5b80604052505050565b6000611f12611ca9565b9050611f1e8282611ed7565b919050565b600067ffffffffffffffff821115611f3e57611f3d611ea8565b5b611f4782611c3d565b9050602081019050919050565b82818337600083830152505050565b6000611f76611f7184611f23565b611f08565b905082815260208101848484011115611f9257611f91611ea3565b5b611f9d848285611f54565b509392505050565b600082601f830112611fba57611fb9611dc7565b5b8135611fca848260208601611f63565b91505092915050565b600060208284031215611fe957611fe8611cb3565b5b600082013567ffffffffffffffff81111561200757612006611cb8565b5b61201384828501611fa5565b91505092915050565b61202581611cdd565b82525050565b600060a08201905081810360008301526120458188611c4e565b90506120546020830187611e79565b6120616040830186611e79565b61206e606083018561201c565b61207b6080830184611d9d565b9695505050505050565b6000806040838503121561209c5761209b611cb3565b5b600083013567ffffffffffffffff8111156120ba576120b9611cb8565b5b6120c685828601611fa5565b92505060206120d785828601611d06565b9150509250929050565b6000806000606084860312156120fa576120f9611cb3565b5b600061210886828701611d06565b935050602061211986828701611d06565b925050604061212a86828701611d3c565b9150509250925092565b600060ff82169050919050565b61214a81612134565b82525050565b60006020820190506121656000830184612141565b92915050565b600082825260208201905092915050565b600061218782611bf7565b612191818561216b565b93506121a1818560208601611c13565b6121aa81611c3d565b840191505092915050565b6121be81611d1b565b82525050565b6121cd81611cdd565b82525050565b600060808301600083015184820360008601526121f0828261217c565b915050602083015161220560208601826121b5565b50604083015161221860408601826121b5565b50606083015161222b60608601826121c4565b508091505092915050565b6000602082019050818103600083015261225081846121d3565b905092915050565b60006020828403121561226e5761226d611cb3565b5b600061227c84828501611d06565b91505092915050565b600081519050919050565b600082825260208201905092915050565b6000819050602082019050919050565b600060808301600083015184820360008601526122ce828261217c565b91505060208301516122e360208601826121b5565b5060408301516122f660408601826121b5565b50606083015161230960608601826121c4565b508091505092915050565b600061232083836122b1565b905092915050565b6000602082019050919050565b600061234082612285565b61234a8185612290565b93508360208202850161235c856122a1565b8060005b8581101561239857848403895281516123798582612314565b945061238483612328565b925060208a01995050600181019050612360565b50829750879550505050505092915050565b600060208201905081810360008301526123c48184612335565b905092915050565b600080604083850312156123e3576123e2611cb3565b5b60006123f185828601611d06565b925050602061240285828601611d06565b9150509250929050565b60008060006040848603121561242557612424611cb3565b5b600084013567ffffffffffffffff81111561244357612442611cb8565b5b61244f86828701611dd6565b9350935050602061246286828701611d3c565b9150509250925092565b7f4e487b7100000000000000000000000000000000000000000000000000000000600052602260045260246000fd5b600060028204905060018216806124b357607f821691505b6020821081036124c6576124c561246c565b5b50919050565b600081905092915050565b60006124e383856124cc565b93506124f0838584611f54565b82840190509392505050565b60006125098284866124d7565b91508190509392505050565b7f43616d706169676e20646f6573206e6f74206578697374000000000000000000600082015250565b600061254b601783611c02565b915061255682612515565b602082019050919050565b6000602082019050818103600083015261257a8161253e565b9050919050565b7f50726f64756365722063616e6e6f7420696e7665737400000000000000000000600082015250565b60006125b7601683611c02565b91506125c282612581565b602082019050919050565b600060208201905081810360008301526125e6816125aa565b9050919050565b7f4e487b7100000000000000000000000000000000000000000000000000000000600052601160045260246000fd5b600061262782611d1b565b915061263283611d1b565b925082820190508082111561264a576126496125ed565b5b92915050565b6000606082019050612665600083018661201c565b612672602083018561201c565b61267f6040830184611e79565b949350505050565b61269081611d91565b811461269b57600080fd5b50565b6000815190506126ad81612687565b92915050565b6000602082840312156126c9576126c8611cb3565b5b60006126d78482850161269e565b91505092915050565b60006126ec8385611c02565b93506126f9838584611f54565b61270283611c3d565b840190509392505050565b600060408201905081810360008301526127288185876126e0565b90506127376020830184611e79565b949350505050565b7f4e487b7100000000000000000000000000000000000000000000000000000000600052603260045260246000fd5b60008190508160005260206000209050919050565b600081546127908161249b565b61279a81866124cc565b945060018216600081146127b557600181146127ca576127fd565b60ff19831686528115158202860193506127fd565b6127d38561276e565b60005b838110156127f5578154818901526001820191506020810190506127d6565b838801955050505b50505092915050565b60006128128284612783565b915081905092915050565b600061282882611d1b565b91507fffffffffffffffffffffffffffffffffffffffffffffffffffffffffffffffff820361285a576128596125ed565b5b600182019050919050565b600061287082611d1b565b915061287b83611d1b565b925082820261288981611d1b565b915082820484148315176128a05761289f6125ed565b5b5092915050565b7f4e487b7100000000000000000000000000000000000000000000000000000000600052601260045260246000fd5b60006128e182611d1b565b91506128ec83611d1b565b9250826128fc576128fb6128a7565b5b828204905092915050565b7f43616d706169676e20616c726561647920657869737473000000000000000000600082015250565b600061293d601783611c02565b915061294882612907565b602082019050919050565b6000602082019050818103600083015261296c81612930565b9050919050565b7f54617267657420616d6f756e74206d757374206265206772656174657220746860008201527f616e203000000000000000000000000000000000000000000000000000000000602082015250565b60006129cf602483611c02565b91506129da82612973565b604082019050919050565b600060208201905081810360008301526129fe816129c2565b9050919050565b60006020601f8301049050919050565b600082821b905092915050565b600060088302612a527fffffffffffffffffffffffffffffffffffffffffffffffffffffffffffffffff82612a15565b612a5c8683612a15565b95508019841693508086168417925050509392505050565b6000819050919050565b6000612a99612a94612a8f84611d1b565b612a74565b611d1b565b9050919050565b6000819050919050565b612ab383612a7e565b612ac7612abf82612aa0565b848454612a22565b825550505050565b600090565b612adc612acf565b612ae7818484612aaa565b505050565b5b81811015612b0b57612b00600082612ad4565b600181019050612aed565b5050565b601f821115612b5057612b218161276e565b612b2a84612a05565b81016020851015612b39578190505b612b4d612b4585612a05565b830182612aec565b50505b505050565b600082821c905092915050565b6000612b7360001984600802612b55565b1980831691505092915050565b6000612b8c8383612b62565b9150826002028217905092915050565b612ba582611bf7565b67ffffffffffffffff811115612bbe57612bbd611ea8565b5b612bc8825461249b565b612bd3828285612b0f565b600060209050601f831160018114612c065760008415612bf4578287015190505b612bfe8582612b80565b865550612c66565b601f198416612c148661276e565b60005b82811015612c3c57848901518255600182019150602085019450602081019050612c17565b86831015612c595784890151612c55601f891682612b62565b8355505b6001600288020188555050505b505050505050565b600082905092915050565b612c838383612c6e565b67ffffffffffffffff811115612c9c57612c9b611ea8565b5b612ca6825461249b565b612cb1828285612b0f565b6000601f831160018114612ce05760008415612cce578287013590505b612cd88582612b80565b865550612d40565b601f198416612cee8661276e565b60005b82811015612d1657848901358255600182019150602085019450602081019050612cf1565b86831015612d335784890135612d2f601f891682612b62565b8355505b6001600288020188555050505b50505050505050565b7f43616d706169676e206973206e6f7420636f6d706c6574656400000000000000600082015250565b6000612d7f601983611c02565b9150612d8a82612d49565b602082019050919050565b60006020820190508181036000830152612dae81612d72565b9050919050565b7f4f6e6c792070726f64756365722063616e20636c61696d000000000000000000600082015250565b6000612deb601783611c02565b9150612df682612db5565b602082019050919050565b60006020820190508181036000830152612e1a81612dde565b9050919050565b6000604082019050612e36600083018561201c565b612e436020830184611e79565b9392505050565b6000602082019050612e5f600083018461201c565b92915050565b6000606082019050612e7a600083018661201c565b612e876020830185611e79565b612e946040830184611e79565b94935050505056fea2646970667358221220701bf0129c19b1cf57b4c9c3b672a595a6887a5178372ce1659b7c30c0d2fd4b64736f6c63430008140033",
  "linkReferences": {},
  "deployedLinkReferences": {}
}