{
  "_format": "hh-sol-artifact-1",
  "contractName": "HollyFund",
  "sourceName": "contracts/HollyFund.sol",
  "abi": [
    {
      "inputs": [
        {
          "internalType": "uint256",
          "name": "initialSupply",
          "type": "uint256"
        }
      ],
      "stateMutability": "nonpayable",
      "type": "constructor"
    },
    {
      "inputs": [
        {
          "internalType": "address",
          "name": "spender",
          "type": "address"
        },
        {
          "internalType": "uint256",
          "name": "allowance",
          "type": "uint256"
        },
        {
          "internalType": "uint256",
          "name": "needed",
          "type": "uint256"
        }
      ],
      "name": "ERC20InsufficientAllowance",
      "type": "error"
    },
    {
      "inputs": [
        {
          "internalType": "address",
          "name": "sender",
          "type": "address"
        },
        {
          "internalType": "uint256",
          "name": "balance",
          "type": "uint256"
        },
        {
          "internalType": "uint256",
          "name": "needed",
          "type": "uint256"
        }
      ],
      "name": "ERC20InsufficientBalance",
      "type": "error"
    },
    {
      "inputs": [
        {
          "internalType": "address",
          "name": "approver",
          "type": "address"
        }
      ],
      "name": "ERC20InvalidApprover",
      "type": "error"
    },
    {
      "inputs": [
        {
          "internalType": "address",
          "name": "receiver",
          "type": "address"
        }
      ],
      "name": "ERC20InvalidReceiver",
      "type": "error"
    },
    {
      "inputs": [
        {
          "internalType": "address",
          "name": "sender",
          "type": "address"
        }
      ],
      "name": "ERC20InvalidSender",
      "type": "error"
    },
    {
      "inputs": [
        {
          "internalType": "address",
          "name": "spender",
          "type": "address"
        }
      ],
      "name": "ERC20InvalidSpender",
      "type": "error"
    },
    {
      "anonymous": false,
      "inputs": [
        {
          "indexed": true,
          "internalType": "address",
          "name": "owner",
          "type": "address"
        },
        {
          "indexed": true,
          "internalType": "address",
          "name": "spender",
          "type": "address"
        },
        {
          "indexed": false,
          "internalType": "uint256",
          "name": "value",
          "type": "uint256"
        }
      ],
      "name": "Approval",
      "type": "event"
    },
    {
      "anonymous": false,
      "inputs": [
        {
          "indexed": false,
          "internalType": "string",
          "name": "name",
          "type": "string"
        },
        {
          "indexed": false,
          "internalType": "uint256",
          "name": "targetAmount",
          "type": "uint256"
        }
      ],
      "name": "NewCampaign",
      "type": "event"
    },
    {
      "anonymous": false,
      "inputs": [
        {
          "indexed": false,
          "internalType": "string",
          "name": "name",
          "type": "string"
        },
        {
          "indexed": false,
          "internalType": "uint256",
          "name": "investAmount",
          "type": "uint256"
        }
      ],
      "name": "NewInvestment",
      "type": "event"
    },
    {
      "anonymous": false,
      "inputs": [
        {
          "indexed": true,
          "internalType": "address",
          "name": "from",
          "type": "address"
        },
        {
          "indexed": true,
          "internalType": "address",
          "name": "to",
          "type": "address"
        },
        {
          "indexed": false,
          "internalType": "uint256",
          "name": "value",
          "type": "uint256"
        }
      ],
      "name": "Transfer",
      "type": "event"
    },
    {
      "inputs": [
        {
          "internalType": "address",
          "name": "owner",
          "type": "address"
        },
        {
          "internalType": "address",
          "name": "spender",
          "type": "address"
        }
      ],
      "name": "allowance",
      "outputs": [
        {
          "internalType": "uint256",
          "name": "",
          "type": "uint256"
        }
      ],
      "stateMutability": "view",
      "type": "function"
    },
    {
      "inputs": [
        {
          "internalType": "address",
          "name": "spender",
          "type": "address"
        },
        {
          "internalType": "uint256",
          "name": "value",
          "type": "uint256"
        }
      ],
      "name": "approve",
      "outputs": [
        {
          "internalType": "bool",
          "name": "",
          "type": "bool"
        }
      ],
      "stateMutability": "nonpayable",
      "type": "function"
    },
    {
      "inputs": [
        {
          "internalType": "address",
          "name": "account",
          "type": "address"
        }
      ],
      "name": "balanceOf",
      "outputs": [
        {
          "internalType": "uint256",
          "name": "",
          "type": "uint256"
        }
      ],
      "stateMutability": "view",
      "type": "function"
    },
    {
      "inputs": [
        {
          "internalType": "string",
          "name": "",
          "type": "string"
        },
        {
          "internalType": "address",
          "name": "",
          "type": "address"
        }
      ],
      "name": "campaignToInvestments",
      "outputs": [
        {
          "internalType": "uint256",
          "name": "",
          "type": "uint256"
        }
      ],
      "stateMutability": "view",
      "type": "function"
    },
    {
      "inputs": [
        {
          "internalType": "string",
          "name": "",
          "type": "string"
        }
      ],
      "name": "campaigns",
      "outputs": [
        {
          "internalType": "string",
          "name": "title",
          "type": "string"
        },
        {
          "internalType": "uint256",
          "name": "totalAmount",
          "type": "uint256"
        },
        {
          "internalType": "uint256",
          "name": "targetAmount",
          "type": "uint256"
        },
        {
          "internalType": "address",
          "name": "producer",
          "type": "address"
        },
        {
          "internalType": "bool",
          "name": "exists",
          "type": "bool"
        },
        {
          "internalType": "bool",
          "name": "completed",
          "type": "bool"
        }
      ],
      "stateMutability": "view",
      "type": "function"
    },
    {
      "inputs": [
        {
          "internalType": "string",
          "name": "_name",
          "type": "string"
        }
      ],
      "name": "claim",
      "outputs": [],
      "stateMutability": "nonpayable",
      "type": "function"
    },
    {
      "inputs": [
        {
          "internalType": "string",
          "name": "_name",
          "type": "string"
        },
        {
          "internalType": "uint256",
          "name": "_targetAmount",
          "type": "uint256"
        }
      ],
      "name": "createCampaign",
      "outputs": [],
      "stateMutability": "nonpayable",
      "type": "function"
    },
    {
      "inputs": [],
      "name": "decimals",
      "outputs": [
        {
          "internalType": "uint8",
          "name": "",
          "type": "uint8"
        }
      ],
      "stateMutability": "view",
      "type": "function"
    },
    {
      "inputs": [],
      "name": "getAllCampaigns",
      "outputs": [
        {
          "components": [
            {
              "internalType": "string",
              "name": "title",
              "type": "string"
            },
            {
              "internalType": "uint256",
              "name": "totalAmount",
              "type": "uint256"
            },
            {
              "internalType": "uint256",
              "name": "targetAmount",
              "type": "uint256"
            },
            {
              "internalType": "address",
              "name": "producer",
              "type": "address"
            },
            {
              "internalType": "bool",
              "name": "completed",
              "type": "bool"
            }
          ],
          "internalType": "struct HollyFund.CampaignDto[]",
          "name": "",
          "type": "tuple[]"
        }
      ],
      "stateMutability": "view",
      "type": "function"
    },
    {
      "inputs": [
        {
          "internalType": "string",
          "name": "_name",
          "type": "string"
        }
      ],
      "name": "getCampaign",
      "outputs": [
        {
          "components": [
            {
              "internalType": "string",
              "name": "title",
              "type": "string"
            },
            {
              "internalType": "uint256",
              "name": "totalAmount",
              "type": "uint256"
            },
            {
              "internalType": "uint256",
              "name": "targetAmount",
              "type": "uint256"
            },
            {
              "internalType": "address",
              "name": "producer",
              "type": "address"
            },
            {
              "internalType": "bool",
              "name": "completed",
              "type": "bool"
            }
          ],
          "internalType": "struct HollyFund.CampaignDto",
          "name": "",
          "type": "tuple"
        }
      ],
      "stateMutability": "view",
      "type": "function"
    },
    {
      "inputs": [
        {
          "internalType": "string",
          "name": "_name",
          "type": "string"
        }
      ],
      "name": "getCompletion",
      "outputs": [
        {
          "internalType": "uint256",
          "name": "",
          "type": "uint256"
        }
      ],
      "stateMutability": "view",
      "type": "function"
    },
    {
      "inputs": [
        {
          "internalType": "string",
          "name": "_name",
          "type": "string"
        }
      ],
      "name": "getInvestment",
      "outputs": [
        {
          "internalType": "uint256",
          "name": "",
          "type": "uint256"
        }
      ],
      "stateMutability": "view",
      "type": "function"
    },
    {
      "inputs": [
        {
          "internalType": "string",
          "name": "_name",
          "type": "string"
        }
      ],
      "name": "invest",
      "outputs": [],
      "stateMutability": "payable",
      "type": "function"
    },
    {
      "inputs": [],
      "name": "name",
      "outputs": [
        {
          "internalType": "string",
          "name": "",
          "type": "string"
        }
      ],
      "stateMutability": "view",
      "type": "function"
    },
    {
      "inputs": [],
      "name": "symbol",
      "outputs": [
        {
          "internalType": "string",
          "name": "",
          "type": "string"
        }
      ],
      "stateMutability": "view",
      "type": "function"
    },
    {
      "inputs": [],
      "name": "totalSupply",
      "outputs": [
        {
          "internalType": "uint256",
          "name": "",
          "type": "uint256"
        }
      ],
      "stateMutability": "view",
      "type": "function"
    },
    {
      "inputs": [
        {
          "internalType": "address",
          "name": "to",
          "type": "address"
        },
        {
          "internalType": "uint256",
          "name": "value",
          "type": "uint256"
        }
      ],
      "name": "transfer",
      "outputs": [
        {
          "internalType": "bool",
          "name": "",
          "type": "bool"
        }
      ],
      "stateMutability": "nonpayable",
      "type": "function"
    },
    {
      "inputs": [
        {
          "internalType": "address",
          "name": "from",
          "type": "address"
        },
        {
          "internalType": "address",
          "name": "to",
          "type": "address"
        },
        {
          "internalType": "uint256",
          "name": "value",
          "type": "uint256"
        }
      ],
      "name": "transferFrom",
      "outputs": [
        {
          "internalType": "bool",
          "name": "",
          "type": "bool"
        }
      ],
      "stateMutability": "nonpayable",
      "type": "function"
    }
  ],
  "bytecode": "0x60806040523480156200001157600080fd5b50604051620038eb380380620038eb8339818101604052810190620000379190620003df565b6040518060400160405280600681526020017f446f6c6c617200000000000000000000000000000000000000000000000000008152506040518060400160405280600381526020017f55534400000000000000000000000000000000000000000000000000000000008152508160039081620000b4919062000681565b508060049081620000c6919062000681565b505050620000db3382620000e260201b60201c565b506200089f565b600073ffffffffffffffffffffffffffffffffffffffff168273ffffffffffffffffffffffffffffffffffffffff1603620001575760006040517fec442f050000000000000000000000000000000000000000000000000000000081526004016200014e9190620007ad565b60405180910390fd5b6200016b600083836200016f60201b60201c565b5050565b600073ffffffffffffffffffffffffffffffffffffffff168373ffffffffffffffffffffffffffffffffffffffff1603620001c5578060026000828254620001b89190620007f9565b925050819055506200029b565b60008060008573ffffffffffffffffffffffffffffffffffffffff1673ffffffffffffffffffffffffffffffffffffffff1681526020019081526020016000205490508181101562000254578381836040517fe450d38c0000000000000000000000000000000000000000000000000000000081526004016200024b9392919062000845565b60405180910390fd5b8181036000808673ffffffffffffffffffffffffffffffffffffffff1673ffffffffffffffffffffffffffffffffffffffff16815260200190815260200160002081905550505b600073ffffffffffffffffffffffffffffffffffffffff168273ffffffffffffffffffffffffffffffffffffffff1603620002e6578060026000828254039250508190555062000333565b806000808473ffffffffffffffffffffffffffffffffffffffff1673ffffffffffffffffffffffffffffffffffffffff168152602001908152602001600020600082825401925050819055505b8173ffffffffffffffffffffffffffffffffffffffff168373ffffffffffffffffffffffffffffffffffffffff167fddf252ad1be2c89b69c2b068fc378daa952ba7f163c4a11628f55a4df523b3ef8360405162000392919062000882565b60405180910390a3505050565b600080fd5b6000819050919050565b620003b981620003a4565b8114620003c557600080fd5b50565b600081519050620003d981620003ae565b92915050565b600060208284031215620003f857620003f76200039f565b5b60006200040884828501620003c8565b91505092915050565b600081519050919050565b7f4e487b7100000000000000000000000000000000000000000000000000000000600052604160045260246000fd5b7f4e487b7100000000000000000000000000000000000000000000000000000000600052602260045260246000fd5b600060028204905060018216806200049357607f821691505b602082108103620004a957620004a86200044b565b5b50919050565b60008190508160005260206000209050919050565b60006020601f8301049050919050565b600082821b905092915050565b600060088302620005137fffffffffffffffffffffffffffffffffffffffffffffffffffffffffffffffff82620004d4565b6200051f8683620004d4565b95508019841693508086168417925050509392505050565b6000819050919050565b6000620005626200055c6200055684620003a4565b62000537565b620003a4565b9050919050565b6000819050919050565b6200057e8362000541565b620005966200058d8262000569565b848454620004e1565b825550505050565b600090565b620005ad6200059e565b620005ba81848462000573565b505050565b5b81811015620005e257620005d6600082620005a3565b600181019050620005c0565b5050565b601f8211156200063157620005fb81620004af565b6200060684620004c4565b8101602085101562000616578190505b6200062e6200062585620004c4565b830182620005bf565b50505b505050565b600082821c905092915050565b6000620006566000198460080262000636565b1980831691505092915050565b600062000671838362000643565b9150826002028217905092915050565b6200068c8262000411565b67ffffffffffffffff811115620006a857620006a76200041c565b5b620006b482546200047a565b620006c1828285620005e6565b600060209050601f831160018114620006f95760008415620006e4578287015190505b620006f0858262000663565b86555062000760565b601f1984166200070986620004af565b60005b8281101562000733578489015182556001820191506020850194506020810190506200070c565b868310156200075357848901516200074f601f89168262000643565b8355505b6001600288020188555050505b505050505050565b600073ffffffffffffffffffffffffffffffffffffffff82169050919050565b6000620007958262000768565b9050919050565b620007a78162000788565b82525050565b6000602082019050620007c460008301846200079c565b92915050565b7f4e487b7100000000000000000000000000000000000000000000000000000000600052601160045260246000fd5b60006200080682620003a4565b91506200081383620003a4565b92508282019050808211156200082e576200082d620007ca565b5b92915050565b6200083f81620003a4565b82525050565b60006060820190506200085c60008301866200079c565b6200086b602083018562000834565b6200087a604083018462000834565b949350505050565b600060208201905062000899600083018462000834565b92915050565b61303c80620008af6000396000f3fe6080604052600436106101095760003560e01c806352bf36ec1161009557806395d89b411161006457806395d89b41146103c3578063a9059cbb146103ee578063dd62ed3e1461042b578063f102a67c14610468578063f3fe12c91461049157610109565b806352bf36ec146102e157806370a082311461031e57806386cdf6041461035b57806391e52ccb1461038657610109565b80631d39e509116100dc5780631d39e509146101bd5780631e6a3305146101ff57806323b872dd1461023c578063313ce567146102795780633f694c12146102a457610109565b806306fdde031461010e578063095ea7b3146101395780630a8b78261461017657806318160ddd14610192575b600080fd5b34801561011a57600080fd5b506101236104ba565b6040516101309190611dae565b60405180910390f35b34801561014557600080fd5b50610160600480360381019061015b9190611e78565b61054c565b60405161016d9190611ed3565b60405180910390f35b610190600480360381019061018b9190611f53565b61056f565b005b34801561019e57600080fd5b506101a76107b8565b6040516101b49190611faf565b60405180910390f35b3480156101c957600080fd5b506101e460048036038101906101df91906120fa565b6107c2565b6040516101f696959493929190612152565b60405180910390f35b34801561020b57600080fd5b50610226600480360381019061022191906121ba565b6108d6565b6040516102339190611faf565b60405180910390f35b34801561024857600080fd5b50610263600480360381019061025e9190612216565b610911565b6040516102709190611ed3565b60405180910390f35b34801561028557600080fd5b5061028e610940565b60405161029b9190612285565b60405180910390f35b3480156102b057600080fd5b506102cb60048036038101906102c69190611f53565b610949565b6040516102d89190611faf565b60405180910390f35b3480156102ed57600080fd5b5061030860048036038101906103039190611f53565b610a2c565b604051610315919061238d565b60405180910390f35b34801561032a57600080fd5b50610345600480360381019061034091906123af565b610be4565b6040516103529190611faf565b60405180910390f35b34801561036757600080fd5b50610370610c2c565b60405161037d9190612514565b60405180910390f35b34801561039257600080fd5b506103ad60048036038101906103a89190611f53565b610e1c565b6040516103ba9190611faf565b60405180910390f35b3480156103cf57600080fd5b506103d8610ee6565b6040516103e59190611dae565b60405180910390f35b3480156103fa57600080fd5b5061041560048036038101906104109190611e78565b610f78565b6040516104229190611ed3565b60405180910390f35b34801561043757600080fd5b50610452600480360381019061044d9190612536565b610f9b565b60405161045f9190611faf565b60405180910390f35b34801561047457600080fd5b5061048f600480360381019061048a9190612576565b611022565b005b34801561049d57600080fd5b506104b860048036038101906104b39190611f53565b6112c6565b005b6060600380546104c990612605565b80601f01602080910402602001604051908101604052809291908181526020018280546104f590612605565b80156105425780601f1061051757610100808354040283529160200191610542565b820191906000526020600020905b81548152906001019060200180831161052557829003601f168201915b5050505050905090565b6000806105576115b9565b90506105648185856115c1565b600191505092915050565b81816001151560058383604051610587929190612666565b908152602001604051809103902060030160149054906101000a900460ff161515146105e8576040517f08c379a00000000000000000000000000000000000000000000000000000000081526004016105df906126cb565b60405180910390fd5b600015156105f685856115d3565b151514610638576040517f08c379a000000000000000000000000000000000000000000000000000000000815260040161062f90612737565b60405180910390fd5b60006005858560405161064c929190612666565b90815260200160405180910390209050348160010160008282546106709190612786565b92505081905550346006868660405161068a929190612666565b908152602001604051809103902060003373ffffffffffffffffffffffffffffffffffffffff1673ffffffffffffffffffffffffffffffffffffffff16815260200190815260200160002060008282546106e49190612786565b925050819055506106f5333461164f565b3073ffffffffffffffffffffffffffffffffffffffff166323b872dd3330346040518463ffffffff1660e01b8152600401610732939291906127ba565b6020604051808303816000875af1158015610751573d6000803e3d6000fd5b505050506040513d601f19601f82011682018060405250810190610775919061281d565b507f468f5e7720cdcb8ac34ba0dd6210636c9986e10da09c42ee87bac90d14a261268585346040516107a993929190612877565b60405180910390a15050505050565b6000600254905090565b6005818051602081018201805184825260208301602085012081835280955050505050506000915090508060000180546107fb90612605565b80601f016020809104026020016040519081016040528092919081815260200182805461082790612605565b80156108745780601f1061084957610100808354040283529160200191610874565b820191906000526020600020905b81548152906001019060200180831161085757829003601f168201915b5050505050908060010154908060020154908060030160009054906101000a900473ffffffffffffffffffffffffffffffffffffffff16908060030160149054906101000a900460ff16908060030160159054906101000a900460ff16905086565b600682805160208101820180518482526020830160208501208183528095505050505050602052806000526040600020600091509150505481565b60008061091c6115b9565b90506109298582856116d1565b610934858585611765565b60019150509392505050565b60006012905090565b600082826001151560058383604051610963929190612666565b908152602001604051809103902060030160149054906101000a900460ff161515146109c4576040517f08c379a00000000000000000000000000000000000000000000000000000000081526004016109bb906126cb565b60405180910390fd5b600685856040516109d6929190612666565b908152602001604051809103902060003373ffffffffffffffffffffffffffffffffffffffff1673ffffffffffffffffffffffffffffffffffffffff168152602001908152602001600020549250505092915050565b610a34611cd7565b82826001151560058383604051610a4c929190612666565b908152602001604051809103902060030160149054906101000a900460ff16151514610aad576040517f08c379a0000000000000000000000000000000000000000000000000000000008152600401610aa4906126cb565b60405180910390fd5b600060058686604051610ac1929190612666565b908152602001604051809103902090506040518060a00160405280826000018054610aeb90612605565b80601f0160208091040260200160405190810160405280929190818152602001828054610b1790612605565b8015610b645780601f10610b3957610100808354040283529160200191610b64565b820191906000526020600020905b815481529060010190602001808311610b4757829003601f168201915b5050505050815260200182600101548152602001826002015481526020018260030160009054906101000a900473ffffffffffffffffffffffffffffffffffffffff1673ffffffffffffffffffffffffffffffffffffffff1681526020018260030160159054906101000a900460ff161515815250935050505092915050565b60008060008373ffffffffffffffffffffffffffffffffffffffff1673ffffffffffffffffffffffffffffffffffffffff168152602001908152602001600020549050919050565b6060600060078054905067ffffffffffffffff811115610c4f57610c4e611fcf565b5b604051908082528060200260200182016040528015610c8857816020015b610c75611cd7565b815260200190600190039081610c6d5790505b50905060005b600780549050811015610e14576000600560078381548110610cb357610cb26128a9565b5b90600052602060002001604051610cca9190612970565b908152602001604051809103902090506040518060a00160405280826000018054610cf490612605565b80601f0160208091040260200160405190810160405280929190818152602001828054610d2090612605565b8015610d6d5780601f10610d4257610100808354040283529160200191610d6d565b820191906000526020600020905b815481529060010190602001808311610d5057829003601f168201915b5050505050815260200182600101548152602001826002015481526020018260030160009054906101000a900473ffffffffffffffffffffffffffffffffffffffff1673ffffffffffffffffffffffffffffffffffffffff1681526020018260030160159054906101000a900460ff161515815250838381518110610df557610df46128a9565b5b6020026020010181905250508080610e0c90612987565b915050610c8e565b508091505090565b600082826001151560058383604051610e36929190612666565b908152602001604051809103902060030160149054906101000a900460ff16151514610e97576040517f08c379a0000000000000000000000000000000000000000000000000000000008152600401610e8e906126cb565b60405180910390fd5b600060058686604051610eab929190612666565b90815260200160405180910390209050806002015460648260010154610ed191906129cf565b610edb9190612a40565b935050505092915050565b606060048054610ef590612605565b80601f0160208091040260200160405190810160405280929190818152602001828054610f2190612605565b8015610f6e5780601f10610f4357610100808354040283529160200191610f6e565b820191906000526020600020905b815481529060010190602001808311610f5157829003601f168201915b5050505050905090565b600080610f836115b9565b9050610f90818585611765565b600191505092915050565b6000600160008473ffffffffffffffffffffffffffffffffffffffff1673ffffffffffffffffffffffffffffffffffffffff16815260200190815260200160002060008373ffffffffffffffffffffffffffffffffffffffff1673ffffffffffffffffffffffffffffffffffffffff16815260200190815260200160002054905092915050565b8282600015156005838360405161103a929190612666565b908152602001604051809103902060030160149054906101000a900460ff1615151461109b576040517f08c379a000000000000000000000000000000000000000000000000000000000815260040161109290612abd565b60405180910390fd5b600083036110de576040517f08c379a00000000000000000000000000000000000000000000000000000000081526004016110d590612b4f565b60405180910390fd5b60006040518060c0016040528087878080601f016020809104026020016040519081016040528093929190818152602001838380828437600081840152601f19601f820116905080830192505050505050508152602001600081526020018581526020013373ffffffffffffffffffffffffffffffffffffffff1681526020016001151581526020016000151581525090508060058787604051611183929190612666565b908152602001604051809103902060008201518160000190816111a69190612d06565b50602082015181600101556040820151816002015560608201518160030160006101000a81548173ffffffffffffffffffffffffffffffffffffffff021916908373ffffffffffffffffffffffffffffffffffffffff16021790555060808201518160030160146101000a81548160ff02191690831515021790555060a08201518160030160156101000a81548160ff0219169083151502179055509050506007868690918060018154018082558091505060019003906000526020600020016000909192909192909192909192509182611282929190612de3565b507f604b9eb8bc101a6d7cbd7a32ef56634747351735acc484e19c3b4440468cde158686866040516112b693929190612877565b60405180910390a1505050505050565b818160011515600583836040516112de929190612666565b908152602001604051809103902060030160149054906101000a900460ff1615151461133f576040517f08c379a0000000000000000000000000000000000000000000000000000000008152600401611336906126cb565b60405180910390fd5b838360058282604051611353929190612666565b90815260200160405180910390206002015460058383604051611377929190612666565b90815260200160405180910390206001015410156113ca576040517f08c379a00000000000000000000000000000000000000000000000000000000081526004016113c190612eff565b60405180910390fd5b600115156113d887876115d3565b15151461141a576040517f08c379a000000000000000000000000000000000000000000000000000000000815260040161141190612f6b565b60405180910390fd5b60006005878760405161142e929190612666565b90815260200160405180910390206001015490503073ffffffffffffffffffffffffffffffffffffffff1663a9059cbb33836040518363ffffffff1660e01b815260040161147d929190612f8b565b6020604051808303816000875af115801561149c573d6000803e3d6000fd5b505050506040513d601f19601f820116820180604052508101906114c0919061281d565b503373ffffffffffffffffffffffffffffffffffffffff166108fc829081150290604051600060405180830381858888f1935050505015611565573373ffffffffffffffffffffffffffffffffffffffff163073ffffffffffffffffffffffffffffffffffffffff167fddf252ad1be2c89b69c2b068fc378daa952ba7f163c4a11628f55a4df523b3ef836040516115589190611faf565b60405180910390a361156a565b600080fd5b60016005888860405161157e929190612666565b908152602001604051809103902060030160156101000a81548160ff0219169083151502179055506115b03382611859565b50505050505050565b600033905090565b6115ce83838360016118db565b505050565b60003373ffffffffffffffffffffffffffffffffffffffff16600584846040516115fe929190612666565b908152602001604051809103902060030160009054906101000a900473ffffffffffffffffffffffffffffffffffffffff1673ffffffffffffffffffffffffffffffffffffffff1614905092915050565b600073ffffffffffffffffffffffffffffffffffffffff168273ffffffffffffffffffffffffffffffffffffffff16036116c15760006040517fec442f050000000000000000000000000000000000000000000000000000000081526004016116b89190612fb4565b60405180910390fd5b6116cd60008383611ab2565b5050565b60006116dd8484610f9b565b90507fffffffffffffffffffffffffffffffffffffffffffffffffffffffffffffffff811461175f578181101561174f578281836040517ffb8f41b200000000000000000000000000000000000000000000000000000000815260040161174693929190612fcf565b60405180910390fd5b61175e848484840360006118db565b5b50505050565b600073ffffffffffffffffffffffffffffffffffffffff168373ffffffffffffffffffffffffffffffffffffffff16036117d75760006040517f96c6fd1e0000000000000000000000000000000000000000000000000000000081526004016117ce9190612fb4565b60405180910390fd5b600073ffffffffffffffffffffffffffffffffffffffff168273ffffffffffffffffffffffffffffffffffffffff16036118495760006040517fec442f050000000000000000000000000000000000000000000000000000000081526004016118409190612fb4565b60405180910390fd5b611854838383611ab2565b505050565b600073ffffffffffffffffffffffffffffffffffffffff168273ffffffffffffffffffffffffffffffffffffffff16036118cb5760006040517f96c6fd1e0000000000000000000000000000000000000000000000000000000081526004016118c29190612fb4565b60405180910390fd5b6118d782600083611ab2565b5050565b600073ffffffffffffffffffffffffffffffffffffffff168473ffffffffffffffffffffffffffffffffffffffff160361194d5760006040517fe602df050000000000000000000000000000000000000000000000000000000081526004016119449190612fb4565b60405180910390fd5b600073ffffffffffffffffffffffffffffffffffffffff168373ffffffffffffffffffffffffffffffffffffffff16036119bf5760006040517f94280d620000000000000000000000000000000000000000000000000000000081526004016119b69190612fb4565b60405180910390fd5b81600160008673ffffffffffffffffffffffffffffffffffffffff1673ffffffffffffffffffffffffffffffffffffffff16815260200190815260200160002060008573ffffffffffffffffffffffffffffffffffffffff1673ffffffffffffffffffffffffffffffffffffffff168152602001908152602001600020819055508015611aac578273ffffffffffffffffffffffffffffffffffffffff168473ffffffffffffffffffffffffffffffffffffffff167f8c5be1e5ebec7d5bd14f71427d1e84f3dd0314c0f7b2291e5b200ac8c7c3b92584604051611aa39190611faf565b60405180910390a35b50505050565b600073ffffffffffffffffffffffffffffffffffffffff168373ffffffffffffffffffffffffffffffffffffffff1603611b04578060026000828254611af89190612786565b92505081905550611bd7565b60008060008573ffffffffffffffffffffffffffffffffffffffff1673ffffffffffffffffffffffffffffffffffffffff16815260200190815260200160002054905081811015611b90578381836040517fe450d38c000000000000000000000000000000000000000000000000000000008152600401611b8793929190612fcf565b60405180910390fd5b8181036000808673ffffffffffffffffffffffffffffffffffffffff1673ffffffffffffffffffffffffffffffffffffffff16815260200190815260200160002081905550505b600073ffffffffffffffffffffffffffffffffffffffff168273ffffffffffffffffffffffffffffffffffffffff1603611c205780600260008282540392505081905550611c6d565b806000808473ffffffffffffffffffffffffffffffffffffffff1673ffffffffffffffffffffffffffffffffffffffff168152602001908152602001600020600082825401925050819055505b8173ffffffffffffffffffffffffffffffffffffffff168373ffffffffffffffffffffffffffffffffffffffff167fddf252ad1be2c89b69c2b068fc378daa952ba7f163c4a11628f55a4df523b3ef83604051611cca9190611faf565b60405180910390a3505050565b6040518060a00160405280606081526020016000815260200160008152602001600073ffffffffffffffffffffffffffffffffffffffff1681526020016000151581525090565b600081519050919050565b600082825260208201905092915050565b60005b83811015611d58578082015181840152602081019050611d3d565b60008484015250505050565b6000601f19601f8301169050919050565b6000611d8082611d1e565b611d8a8185611d29565b9350611d9a818560208601611d3a565b611da381611d64565b840191505092915050565b60006020820190508181036000830152611dc88184611d75565b905092915050565b6000604051905090565b600080fd5b600080fd5b600073ffffffffffffffffffffffffffffffffffffffff82169050919050565b6000611e0f82611de4565b9050919050565b611e1f81611e04565b8114611e2a57600080fd5b50565b600081359050611e3c81611e16565b92915050565b6000819050919050565b611e5581611e42565b8114611e6057600080fd5b50565b600081359050611e7281611e4c565b92915050565b60008060408385031215611e8f57611e8e611dda565b5b6000611e9d85828601611e2d565b9250506020611eae85828601611e63565b9150509250929050565b60008115159050919050565b611ecd81611eb8565b82525050565b6000602082019050611ee86000830184611ec4565b92915050565b600080fd5b600080fd5b600080fd5b60008083601f840112611f1357611f12611eee565b5b8235905067ffffffffffffffff811115611f3057611f2f611ef3565b5b602083019150836001820283011115611f4c57611f4b611ef8565b5b9250929050565b60008060208385031215611f6a57611f69611dda565b5b600083013567ffffffffffffffff811115611f8857611f87611ddf565b5b611f9485828601611efd565b92509250509250929050565b611fa981611e42565b82525050565b6000602082019050611fc46000830184611fa0565b92915050565b600080fd5b7f4e487b7100000000000000000000000000000000000000000000000000000000600052604160045260246000fd5b61200782611d64565b810181811067ffffffffffffffff8211171561202657612025611fcf565b5b80604052505050565b6000612039611dd0565b90506120458282611ffe565b919050565b600067ffffffffffffffff82111561206557612064611fcf565b5b61206e82611d64565b9050602081019050919050565b82818337600083830152505050565b600061209d6120988461204a565b61202f565b9050828152602081018484840111156120b9576120b8611fca565b5b6120c484828561207b565b509392505050565b600082601f8301126120e1576120e0611eee565b5b81356120f184826020860161208a565b91505092915050565b6000602082840312156121105761210f611dda565b5b600082013567ffffffffffffffff81111561212e5761212d611ddf565b5b61213a848285016120cc565b91505092915050565b61214c81611e04565b82525050565b600060c082019050818103600083015261216c8189611d75565b905061217b6020830188611fa0565b6121886040830187611fa0565b6121956060830186612143565b6121a26080830185611ec4565b6121af60a0830184611ec4565b979650505050505050565b600080604083850312156121d1576121d0611dda565b5b600083013567ffffffffffffffff8111156121ef576121ee611ddf565b5b6121fb858286016120cc565b925050602061220c85828601611e2d565b9150509250929050565b60008060006060848603121561222f5761222e611dda565b5b600061223d86828701611e2d565b935050602061224e86828701611e2d565b925050604061225f86828701611e63565b9150509250925092565b600060ff82169050919050565b61227f81612269565b82525050565b600060208201905061229a6000830184612276565b92915050565b600082825260208201905092915050565b60006122bc82611d1e565b6122c681856122a0565b93506122d6818560208601611d3a565b6122df81611d64565b840191505092915050565b6122f381611e42565b82525050565b61230281611e04565b82525050565b61231181611eb8565b82525050565b600060a083016000830151848203600086015261233482826122b1565b915050602083015161234960208601826122ea565b50604083015161235c60408601826122ea565b50606083015161236f60608601826122f9565b5060808301516123826080860182612308565b508091505092915050565b600060208201905081810360008301526123a78184612317565b905092915050565b6000602082840312156123c5576123c4611dda565b5b60006123d384828501611e2d565b91505092915050565b600081519050919050565b600082825260208201905092915050565b6000819050602082019050919050565b600060a083016000830151848203600086015261242582826122b1565b915050602083015161243a60208601826122ea565b50604083015161244d60408601826122ea565b50606083015161246060608601826122f9565b5060808301516124736080860182612308565b508091505092915050565b600061248a8383612408565b905092915050565b6000602082019050919050565b60006124aa826123dc565b6124b481856123e7565b9350836020820285016124c6856123f8565b8060005b8581101561250257848403895281516124e3858261247e565b94506124ee83612492565b925060208a019950506001810190506124ca565b50829750879550505050505092915050565b6000602082019050818103600083015261252e818461249f565b905092915050565b6000806040838503121561254d5761254c611dda565b5b600061255b85828601611e2d565b925050602061256c85828601611e2d565b9150509250929050565b60008060006040848603121561258f5761258e611dda565b5b600084013567ffffffffffffffff8111156125ad576125ac611ddf565b5b6125b986828701611efd565b935093505060206125cc86828701611e63565b9150509250925092565b7f4e487b7100000000000000000000000000000000000000000000000000000000600052602260045260246000fd5b6000600282049050600182168061261d57607f821691505b6020821081036126305761262f6125d6565b5b50919050565b600081905092915050565b600061264d8385612636565b935061265a83858461207b565b82840190509392505050565b6000612673828486612641565b91508190509392505050565b7f43616d706169676e20646f6573206e6f74206578697374000000000000000000600082015250565b60006126b5601783611d29565b91506126c08261267f565b602082019050919050565b600060208201905081810360008301526126e4816126a8565b9050919050565b7f50726f64756365722063616e6e6f7420696e7665737400000000000000000000600082015250565b6000612721601683611d29565b915061272c826126eb565b602082019050919050565b6000602082019050818103600083015261275081612714565b9050919050565b7f4e487b7100000000000000000000000000000000000000000000000000000000600052601160045260246000fd5b600061279182611e42565b915061279c83611e42565b92508282019050808211156127b4576127b3612757565b5b92915050565b60006060820190506127cf6000830186612143565b6127dc6020830185612143565b6127e96040830184611fa0565b949350505050565b6127fa81611eb8565b811461280557600080fd5b50565b600081519050612817816127f1565b92915050565b60006020828403121561283357612832611dda565b5b600061284184828501612808565b91505092915050565b60006128568385611d29565b935061286383858461207b565b61286c83611d64565b840190509392505050565b6000604082019050818103600083015261289281858761284a565b90506128a16020830184611fa0565b949350505050565b7f4e487b7100000000000000000000000000000000000000000000000000000000600052603260045260246000fd5b60008190508160005260206000209050919050565b600081546128fa81612605565b6129048186612636565b9450600182166000811461291f576001811461293457612967565b60ff1983168652811515820286019350612967565b61293d856128d8565b60005b8381101561295f57815481890152600182019150602081019050612940565b838801955050505b50505092915050565b600061297c82846128ed565b915081905092915050565b600061299282611e42565b91507fffffffffffffffffffffffffffffffffffffffffffffffffffffffffffffffff82036129c4576129c3612757565b5b600182019050919050565b60006129da82611e42565b91506129e583611e42565b92508282026129f381611e42565b91508282048414831517612a0a57612a09612757565b5b5092915050565b7f4e487b7100000000000000000000000000000000000000000000000000000000600052601260045260246000fd5b6000612a4b82611e42565b9150612a5683611e42565b925082612a6657612a65612a11565b5b828204905092915050565b7f43616d706169676e20616c726561647920657869737473000000000000000000600082015250565b6000612aa7601783611d29565b9150612ab282612a71565b602082019050919050565b60006020820190508181036000830152612ad681612a9a565b9050919050565b7f54617267657420616d6f756e74206d757374206265206772656174657220746860008201527f616e203000000000000000000000000000000000000000000000000000000000602082015250565b6000612b39602483611d29565b9150612b4482612add565b604082019050919050565b60006020820190508181036000830152612b6881612b2c565b9050919050565b60006020601f8301049050919050565b600082821b905092915050565b600060088302612bbc7fffffffffffffffffffffffffffffffffffffffffffffffffffffffffffffffff82612b7f565b612bc68683612b7f565b95508019841693508086168417925050509392505050565b6000819050919050565b6000612c03612bfe612bf984611e42565b612bde565b611e42565b9050919050565b6000819050919050565b612c1d83612be8565b612c31612c2982612c0a565b848454612b8c565b825550505050565b600090565b612c46612c39565b612c51818484612c14565b505050565b5b81811015612c7557612c6a600082612c3e565b600181019050612c57565b5050565b601f821115612cba57612c8b816128d8565b612c9484612b6f565b81016020851015612ca3578190505b612cb7612caf85612b6f565b830182612c56565b50505b505050565b600082821c905092915050565b6000612cdd60001984600802612cbf565b1980831691505092915050565b6000612cf68383612ccc565b9150826002028217905092915050565b612d0f82611d1e565b67ffffffffffffffff811115612d2857612d27611fcf565b5b612d328254612605565b612d3d828285612c79565b600060209050601f831160018114612d705760008415612d5e578287015190505b612d688582612cea565b865550612dd0565b601f198416612d7e866128d8565b60005b82811015612da657848901518255600182019150602085019450602081019050612d81565b86831015612dc35784890151612dbf601f891682612ccc565b8355505b6001600288020188555050505b505050505050565b600082905092915050565b612ded8383612dd8565b67ffffffffffffffff811115612e0657612e05611fcf565b5b612e108254612605565b612e1b828285612c79565b6000601f831160018114612e4a5760008415612e38578287013590505b612e428582612cea565b865550612eaa565b601f198416612e58866128d8565b60005b82811015612e8057848901358255600182019150602085019450602081019050612e5b565b86831015612e9d5784890135612e99601f891682612ccc565b8355505b6001600288020188555050505b50505050505050565b7f43616d706169676e206973206e6f7420636f6d706c6574656400000000000000600082015250565b6000612ee9601983611d29565b9150612ef482612eb3565b602082019050919050565b60006020820190508181036000830152612f1881612edc565b9050919050565b7f4f6e6c792070726f64756365722063616e20636c61696d000000000000000000600082015250565b6000612f55601783611d29565b9150612f6082612f1f565b602082019050919050565b60006020820190508181036000830152612f8481612f48565b9050919050565b6000604082019050612fa06000830185612143565b612fad6020830184611fa0565b9392505050565b6000602082019050612fc96000830184612143565b92915050565b6000606082019050612fe46000830186612143565b612ff16020830185611fa0565b612ffe6040830184611fa0565b94935050505056fea2646970667358221220d248b5f4f0f526712c474c30c8b45d1185bb067228067cae050d5427d7b9596464736f6c63430008140033",
  "linkReferences": {},
  "deployedLinkReferences": {}
}